{
  "contractName": "Marketplace",
  "abi": [
    {
      "inputs": [],
      "payable": false,
      "stateMutability": "nonpayable",
      "type": "constructor"
    },
    {
      "anonymous": false,
      "inputs": [
        {
          "indexed": true,
          "name": "throwedBy",
          "type": "address"
        }
      ],
      "name": "NewTraderEvent",
      "type": "event"
    },
    {
      "anonymous": false,
      "inputs": [
        {
          "indexed": true,
          "name": "operation",
          "type": "uint8"
        },
        {
          "indexed": true,
          "name": "commodity",
          "type": "uint8"
        },
        {
          "indexed": false,
          "name": "amount",
          "type": "uint256"
        },
        {
          "indexed": true,
          "name": "throwedBy",
          "type": "address"
        }
      ],
      "name": "NewOrderEvent",
      "type": "event"
    },
    {
      "anonymous": false,
      "inputs": [
        {
          "indexed": false,
          "name": "index",
          "type": "uint256"
        },
        {
          "indexed": false,
          "name": "seller",
          "type": "address"
        },
        {
          "indexed": false,
          "name": "buyer",
          "type": "address"
        },
        {
          "indexed": true,
          "name": "commodity",
          "type": "uint8"
        },
        {
          "indexed": false,
          "name": "amount",
          "type": "uint256"
        },
        {
          "indexed": true,
          "name": "throwedBy",
          "type": "address"
        }
      ],
      "name": "NewSellEvent",
      "type": "event"
    },
    {
      "anonymous": false,
      "inputs": [
        {
          "indexed": false,
          "name": "index",
          "type": "uint256"
        },
        {
          "indexed": false,
          "name": "seller",
          "type": "address"
        },
        {
          "indexed": false,
          "name": "buyer",
          "type": "address"
        },
        {
          "indexed": true,
          "name": "commodity",
          "type": "uint8"
        },
        {
          "indexed": false,
          "name": "amount",
          "type": "uint256"
        },
        {
          "indexed": true,
          "name": "throwedBy",
          "type": "address"
        }
      ],
      "name": "NewBuyEvent",
      "type": "event"
    },
    {
      "constant": false,
      "inputs": [],
      "name": "addNewTrader",
      "outputs": [],
      "payable": false,
      "stateMutability": "nonpayable",
      "type": "function"
    },
    {
      "constant": false,
      "inputs": [
        {
          "name": "operation",
          "type": "uint8"
        },
        {
          "name": "commodity",
          "type": "uint8"
        },
        {
          "name": "amount",
          "type": "uint256"
        }
      ],
      "name": "addNewOrder",
      "outputs": [],
      "payable": false,
      "stateMutability": "nonpayable",
      "type": "function"
    },
    {
      "constant": true,
      "inputs": [
        {
          "name": "commodity",
          "type": "uint8"
        }
      ],
      "name": "getAllOrdersByCommodity",
      "outputs": [
        {
          "name": "indexes",
          "type": "uint256[]"
        }
      ],
      "payable": false,
      "stateMutability": "view",
      "type": "function"
    },
    {
      "constant": true,
      "inputs": [
        {
          "name": "index",
          "type": "uint256"
        }
      ],
      "name": "getOrderByIndex",
      "outputs": [
        {
          "name": "",
          "type": "address"
        },
        {
          "name": "",
          "type": "address"
        },
        {
          "name": "",
          "type": "uint8"
        },
        {
          "name": "",
          "type": "uint8"
        },
        {
          "name": "",
          "type": "uint256"
        },
        {
          "name": "",
          "type": "bool"
        }
      ],
      "payable": false,
      "stateMutability": "view",
      "type": "function"
    },
    {
      "constant": false,
      "inputs": [
        {
          "name": "index",
          "type": "uint256"
        }
      ],
      "name": "executeOrder",
      "outputs": [],
      "payable": true,
      "stateMutability": "payable",
      "type": "function"
    }
  ],
  "bytecode": "0x608060405234801561001057600080fd5b5061001f61002460201b60201c565b610066565b336000806101000a81548173ffffffffffffffffffffffffffffffffffffffff021916908373ffffffffffffffffffffffffffffffffffffffff160217905550565b611925806100756000396000f3fe60806040526004361061004a5760003560e01c80632f73838b1461004f57806351e822a5146100e257806394f6113414610137578063b10262a714610165578063dabe8a711461017c575b600080fd5b34801561005b57600080fd5b5061008b6004803603602081101561007257600080fd5b81019080803560ff169060200190929190505050610266565b6040518080602001828103825283818151815260200191508051906020019060200280838360005b838110156100ce5780820151818401526020810190506100b3565b505050509050019250505060405180910390f35b3480156100ee57600080fd5b506101356004803603606081101561010557600080fd5b81019080803560ff169060200190929190803560ff16906020019092919080359060200190929190505050610570565b005b6101636004803603602081101561014d57600080fd5b8101908080359060200190929190505050610b8e565b005b34801561017157600080fd5b5061017a61128b565b005b34801561018857600080fd5b506101b56004803603602081101561019f57600080fd5b81019080803590602001909291905050506114db565b604051808773ffffffffffffffffffffffffffffffffffffffff1673ffffffffffffffffffffffffffffffffffffffff1681526020018673ffffffffffffffffffffffffffffffffffffffff1673ffffffffffffffffffffffffffffffffffffffff16815260200185600281111561022957fe5b60ff16815260200184600181111561023d57fe5b60ff16815260200183815260200182151515158152602001965050505050505060405180910390f35b606033600073ffffffffffffffffffffffffffffffffffffffff168173ffffffffffffffffffffffffffffffffffffffff16141561030c576040517f08c379a00000000000000000000000000000000000000000000000000000000081526004018080602001828103825260168152602001807f696e76616c69642074726164657220616464726573730000000000000000000081525060200191505060405180910390fd5b600160008273ffffffffffffffffffffffffffffffffffffffff1673ffffffffffffffffffffffffffffffffffffffff16815260200190815260200160002060000160009054906101000a900460ff166103ce576040517f08c379a000000000000000000000000000000000000000000000000000000000815260040180806020018281038252601f8152602001807f61646472657373206e6f7420726567697374726564206173207472616465720081525060200191505060405180910390fd5b82600060028111156103dc57fe5b8160028111156103e857fe5b148061040a5750600160028111156103fc57fe5b81600281111561040857fe5b145b8061042a575060028081111561041c57fe5b81600281111561042857fe5b145b61049c576040517f08c379a00000000000000000000000000000000000000000000000000000000081526004018080602001828103825260118152602001807f696e76616c696420636f6d6d6f6469747900000000000000000000000000000081525060200191505060405180910390fd5b600060038054905090506000809050816040519080825280602002602001820160405280156104da5781602001602082028038833980820191505090505b50945060008090505b82811015610563578660028111156104f757fe5b6003828154811061050457fe5b906000526020600020906004020160010160149054906101000a900460ff16600281111561052e57fe5b1415610556578086838151811061054157fe5b60200260200101818152505081806001019250505b80806001019150506104e3565b5084945050505050919050565b33600073ffffffffffffffffffffffffffffffffffffffff168173ffffffffffffffffffffffffffffffffffffffff161415610614576040517f08c379a00000000000000000000000000000000000000000000000000000000081526004018080602001828103825260168152602001807f696e76616c69642074726164657220616464726573730000000000000000000081525060200191505060405180910390fd5b600160008273ffffffffffffffffffffffffffffffffffffffff1673ffffffffffffffffffffffffffffffffffffffff16815260200190815260200160002060000160009054906101000a900460ff166106d6576040517f08c379a000000000000000000000000000000000000000000000000000000000815260040180806020018281038252601f8152602001807f61646472657373206e6f7420726567697374726564206173207472616465720081525060200191505060405180910390fd5b83600060018111156106e457fe5b8160018111156106f057fe5b1480610711575060018081111561070357fe5b81600181111561070f57fe5b145b610783576040517f08c379a00000000000000000000000000000000000000000000000000000000081526004018080602001828103825260118152602001807f696e76616c6964206f7065726174696f6e00000000000000000000000000000081525060200191505060405180910390fd5b836000600281111561079157fe5b81600281111561079d57fe5b14806107bf5750600160028111156107b157fe5b8160028111156107bd57fe5b145b806107df57506002808111156107d157fe5b8160028111156107dd57fe5b145b610851576040517f08c379a00000000000000000000000000000000000000000000000000000000081526004018080602001828103825260118152602001807f696e76616c696420636f6d6d6f6469747900000000000000000000000000000081525060200191505060405180910390fd5b61085961185c565b6040518060c00160405280600073ffffffffffffffffffffffffffffffffffffffff168152602001600073ffffffffffffffffffffffffffffffffffffffff1681526020018760028111156108aa57fe5b81526020018860018111156108bb57fe5b8152602001868152602001600015158152509050600060018111156108dc57fe5b8760018111156108e857fe5b141561092b5733816020019073ffffffffffffffffffffffffffffffffffffffff16908173ffffffffffffffffffffffffffffffffffffffff1681525050610964565b33816000019073ffffffffffffffffffffffffffffffffffffffff16908173ffffffffffffffffffffffffffffffffffffffff16815250505b6003819080600181540180825580915050906001820390600052602060002090600402016000909192909190915060008201518160000160006101000a81548173ffffffffffffffffffffffffffffffffffffffff021916908373ffffffffffffffffffffffffffffffffffffffff16021790555060208201518160010160006101000a81548173ffffffffffffffffffffffffffffffffffffffff021916908373ffffffffffffffffffffffffffffffffffffffff16021790555060408201518160010160146101000a81548160ff02191690836002811115610a4457fe5b021790555060608201518160010160156101000a81548160ff02191690836001811115610a6d57fe5b02179055506080820151816002015560a08201518160030160006101000a81548160ff021916908315150217905550505050600160003373ffffffffffffffffffffffffffffffffffffffff1673ffffffffffffffffffffffffffffffffffffffff16815260200190815260200160002060010160016003805490500390806001815401808255809150509060018203906000526020600020016000909192909190915055503373ffffffffffffffffffffffffffffffffffffffff1681604001516002811115610b3a57fe5b82606001516001811115610b4a57fe5b7f4032455b3cb008b602744fcc0e9879b76e3be3c6c7538aeed4508a098c1db9e884608001516040518082815260200191505060405180910390a450505050505050565b33600073ffffffffffffffffffffffffffffffffffffffff168173ffffffffffffffffffffffffffffffffffffffff161415610c32576040517f08c379a00000000000000000000000000000000000000000000000000000000081526004018080602001828103825260168152602001807f696e76616c69642074726164657220616464726573730000000000000000000081525060200191505060405180910390fd5b600160008273ffffffffffffffffffffffffffffffffffffffff1673ffffffffffffffffffffffffffffffffffffffff16815260200190815260200160002060000160009054906101000a900460ff16610cf4576040517f08c379a000000000000000000000000000000000000000000000000000000000815260040180806020018281038252601f8152602001807f61646472657373206e6f7420726567697374726564206173207472616465720081525060200191505060405180910390fd5b818060038054905011610d6f576040517f08c379a000000000000000000000000000000000000000000000000000000000815260040180806020018281038252600f8152602001807f6f72646572206e6f7420666f756e64000000000000000000000000000000000081525060200191505060405180910390fd5b600060038481548110610d7e57fe5b9060005260206000209060040201905060008160030160009054906101000a900460ff1615610e15576040517f08c379a00000000000000000000000000000000000000000000000000000000081526004018080602001828103825260168152602001807f6f7264657220616c72656164792065786563757465640000000000000000000081525060200191505060405180910390fd5b60006001811115610e2257fe5b8260010160159054906101000a900460ff166001811115610e3f57fe5b1415610ff85760018260030160006101000a81548160ff021916908315150217905550338260000160006101000a81548173ffffffffffffffffffffffffffffffffffffffff021916908373ffffffffffffffffffffffffffffffffffffffff1602179055508160010160009054906101000a900473ffffffffffffffffffffffffffffffffffffffff1690503373ffffffffffffffffffffffffffffffffffffffff168260010160149054906101000a900460ff166002811115610f0057fe5b7ff989e9a12ae91995e47ee7a3340c2f4a37a211185c9bc32f59de66a1c732f70f878560000160009054906101000a900473ffffffffffffffffffffffffffffffffffffffff168660010160009054906101000a900473ffffffffffffffffffffffffffffffffffffffff168760020154604051808581526020018473ffffffffffffffffffffffffffffffffffffffff1673ffffffffffffffffffffffffffffffffffffffff1681526020018373ffffffffffffffffffffffffffffffffffffffff1673ffffffffffffffffffffffffffffffffffffffff16815260200182815260200194505050505060405180910390a36111a7565b60018260030160006101000a81548160ff021916908315150217905550338260010160006101000a81548173ffffffffffffffffffffffffffffffffffffffff021916908373ffffffffffffffffffffffffffffffffffffffff1602179055508160000160009054906101000a900473ffffffffffffffffffffffffffffffffffffffff1690503373ffffffffffffffffffffffffffffffffffffffff168260010160149054906101000a900460ff1660028111156110b357fe5b7fbe38edf4486b5d0eeea5720d236b300ffc3f2accf9a83da983aa3da21557c426878560000160009054906101000a900473ffffffffffffffffffffffffffffffffffffffff168660010160009054906101000a900473ffffffffffffffffffffffffffffffffffffffff168760020154604051808581526020018473ffffffffffffffffffffffffffffffffffffffff1673ffffffffffffffffffffffffffffffffffffffff1681526020018373ffffffffffffffffffffffffffffffffffffffff1673ffffffffffffffffffffffffffffffffffffffff16815260200182815260200194505050505060405180910390a35b60008173ffffffffffffffffffffffffffffffffffffffff163460405180600001905060006040518083038185875af1925050503d8060008114611207576040519150601f19603f3d011682016040523d82523d6000602084013e61120c565b606091505b5050905080611283576040517f08c379a00000000000000000000000000000000000000000000000000000000081526004018080602001828103825260128152602001807f6661696c656420746f207472616e73666572000000000000000000000000000081525060200191505060405180910390fd5b505050505050565b33600073ffffffffffffffffffffffffffffffffffffffff168173ffffffffffffffffffffffffffffffffffffffff16141561132f576040517f08c379a00000000000000000000000000000000000000000000000000000000081526004018080602001828103825260168152602001807f696e76616c69642074726164657220616464726573730000000000000000000081525060200191505060405180910390fd5b600160008273ffffffffffffffffffffffffffffffffffffffff1673ffffffffffffffffffffffffffffffffffffffff16815260200190815260200160002060000160009054906101000a900460ff16156113d5576040517f08c379a00000000000000000000000000000000000000000000000000000000081526004018080602001828103825260238152602001806118d76023913960400191505060405180910390fd5b60023390806001815401808255809150509060018203906000526020600020016000909192909190916101000a81548173ffffffffffffffffffffffffffffffffffffffff021916908373ffffffffffffffffffffffffffffffffffffffff1602179055505060018060003373ffffffffffffffffffffffffffffffffffffffff1673ffffffffffffffffffffffffffffffffffffffff16815260200190815260200160002060000160006101000a81548160ff0219169083151502179055503373ffffffffffffffffffffffffffffffffffffffff167f159d9ee4cea7f74794fddd6bb6e00ce6309ea7b35c109ab457e8ad54a08daf2e60405160405180910390a250565b60008060008060008033600073ffffffffffffffffffffffffffffffffffffffff168173ffffffffffffffffffffffffffffffffffffffff161415611588576040517f08c379a00000000000000000000000000000000000000000000000000000000081526004018080602001828103825260168152602001807f696e76616c69642074726164657220616464726573730000000000000000000081525060200191505060405180910390fd5b600160008273ffffffffffffffffffffffffffffffffffffffff1673ffffffffffffffffffffffffffffffffffffffff16815260200190815260200160002060000160009054906101000a900460ff1661164a576040517f08c379a000000000000000000000000000000000000000000000000000000000815260040180806020018281038252601f8152602001807f61646472657373206e6f7420726567697374726564206173207472616465720081525060200191505060405180910390fd5b8780600380549050116116c5576040517f08c379a000000000000000000000000000000000000000000000000000000000815260040180806020018281038252600f8152602001807f6f72646572206e6f7420666f756e64000000000000000000000000000000000081525060200191505060405180910390fd5b6116cd61185c565b60038a815481106116da57fe5b90600052602060002090600402016040518060c00160405290816000820160009054906101000a900473ffffffffffffffffffffffffffffffffffffffff1673ffffffffffffffffffffffffffffffffffffffff1673ffffffffffffffffffffffffffffffffffffffff1681526020016001820160009054906101000a900473ffffffffffffffffffffffffffffffffffffffff1673ffffffffffffffffffffffffffffffffffffffff1673ffffffffffffffffffffffffffffffffffffffff1681526020016001820160149054906101000a900460ff1660028111156117bd57fe5b60028111156117c857fe5b81526020016001820160159054906101000a900460ff1660018111156117ea57fe5b60018111156117f557fe5b8152602001600282015481526020016003820160009054906101000a900460ff1615151515815250509050806000015181602001518260400151836060015184608001518560a0015185955084945098509850985098509850985050505091939550919395565b6040518060c00160405280600073ffffffffffffffffffffffffffffffffffffffff168152602001600073ffffffffffffffffffffffffffffffffffffffff168152602001600060028111156118ae57fe5b8152602001600060018111156118c057fe5b815260200160008152602001600015158152509056fe6164647265737320616c72656164792072656769737472656420617320747261646572a165627a7a72305820c7bb97e68099e764a154cc7c4d5fd36d5b93fc905c1bb56cae29e22ecd07f90c0029",
  "source": "pragma solidity ^0.5.8;\n\ncontract Marketplace {\n    //\n    // ENUMERADORES / ESTRUTURAS\n    //\n    enum Operations {\n        BUY, // compra de commodity\n        SELL // venda de commodity\n    }\n\n    enum Commodities {\n        SUGAR, // futuro de acucar cristal com liquidacao financeira\n        CORN, // futuro de milho com liquidacao financeira\n        SOY // futuro de soja com liquidacao financeira\n    }\n\n    struct Order {\n        address payable seller;\n        address payable buyer;\n        Commodities commodity;\n        Operations operation;\n        uint256 amount;\n        bool executed;\n    }\n\n    struct OrderList {\n        bool initialized;\n        uint256[] itens;\n    }\n\n    //\n    // EVENTOS\n    //\n\n\n    /**\n     * @dev evento disparado quando um novo negociante for registrado\n     * @param throwedBy address que disparou o evento\n     * @author bortes\n     */\n    event NewTraderEvent(address indexed throwedBy);\n\n\n    /**\n     * @dev evento disparado quando uma nova ordem for registrada\n     * @param operation operacao desejada\n     * @param commodity mercadoria desejada\n     * @param amount quantidade desejada\n     * @param throwedBy address que disparou o evento\n     * @author bortes\n     */\n    event NewOrderEvent(Operations indexed operation, Commodities indexed commodity, uint256 amount, address indexed throwedBy);\n\n\n    /**\n     * @dev evento disparado quando ocorrer uma venda\n     * @param index indice da ordem\n     * @param seller endereco do vendedor\n     * @param buyer endereco do comprador\n     * @param commodity mercadoria negociada\n     * @param amount quantidade negociada\n     * @param throwedBy address que disparou o evento\n     * @author bortes\n     */\n    event NewSellEvent(uint256 index, address seller, address buyer, Commodities indexed commodity, uint256 amount, address indexed throwedBy);\n\n\n    /**\n     * @dev evento disparado quando ocorrer uma compra\n     * @param index indice da ordem\n     * @param seller endereco do vendedor\n     * @param buyer endereco do comprador\n     * @param commodity mercadoria negociada\n     * @param amount quantidade negociada\n     * @param throwedBy address que disparou o evento\n     * @author bortes\n     */\n    event NewBuyEvent(uint256 index, address seller, address buyer, Commodities indexed commodity, uint256 amount, address indexed throwedBy);\n\n    //\n    // MODIFICADORES\n    //\n\n    /**\n     * @dev consiste endereco nao cadastrado\n     * @param trader endereco do comerciante\n     * @author bortes\n     */\n    modifier onlyNewTrader(\n        address trader\n    ) {\n        // consistencias\n        require(trader != address(0x0), \"invalid trader address\");\n        require(!tradersOrders[trader].initialized, \"address already registred as trader\");\n\n        // prossegue com a analise dos modificadores\n        _;\n    }\n\n    /**\n     * @dev coonsiste operacao valida\n     * @param operation operacao desejada\n     * @author bortes\n     */\n    modifier onlyOperations(\n        Operations operation\n    ) {\n        // consistencias\n        require(operation == Operations.BUY || operation == Operations.SELL, \"invalid operation\");\n\n        // prossegue com a analise dos modificadores\n        _;\n    }\n\n    /**\n     * @dev coonsiste mercadoria valida\n     * @param commodity mercadoria desejada\n     * @author bortes\n     */\n    modifier onlyCommodities(\n        Commodities commodity\n    ) {\n        // consistencias\n        require(commodity == Commodities.SUGAR || commodity == Commodities.CORN || commodity == Commodities.SOY, \"invalid commodity\");\n\n        // prossegue com a analise dos modificadores\n        _;\n    }\n\n    /**\n     * @dev coonsiste endereco ja cadastrado\n     * @param trader endereco do comerciante\n     * @author bortes\n     */\n    modifier onlyTraders(\n        address trader\n    ) {\n        // consistencias\n        require(trader != address(0x0), \"invalid trader address\");\n        require(tradersOrders[trader].initialized, \"address not registred as trader\");\n\n        // prossegue com a analise dos modificadores\n        _;\n    }\n\n    /**\n     * @dev coonsiste ordem\n     * @param index indice da ordem de compra\n     * @author bortes\n     */\n    modifier onlyOrders(\n        uint256 index\n    ) {\n        // consistencias\n        require(orders.length > index, \"order not found\");\n\n        // prossegue com a analise dos modificadores\n        _;\n    }\n\n    //\n    // ATRIBUTOS\n    //\n    address private owner;\n\n    mapping(address => OrderList) private tradersOrders;\n\n    address[] private traders;\n\n    Order[] private orders;\n\n    //\n    // CONSTRUTOR\n    //\n\n    /**\n     * @dev inicializa uma nova versao do contrato\n     * @author bortes\n     */\n    constructor () public {\n        init();\n    }\n\n    //\n    // METODOS PUBLICOS\n    //\n\n    /*\n     * @dev adiciona um novo negociante\n     * @param trader endereco do comerciante\n     * @author bortes\n     */\n    function addNewTrader() onlyNewTrader(msg.sender) public {\n        traders.push(msg.sender);\n        tradersOrders[msg.sender].initialized = true;\n\n        emit NewTraderEvent(msg.sender);\n    }\n\n    /*\n     * @dev adiciona uma nova ordem para uma mercadoria disponivel\n     * @param operation operacao desejada\n     * @param commodity mercadoria desejada\n     * @param amount quantidade desejada\n     * @author bortes\n     */\n    function addNewOrder (Operations operation, Commodities commodity, uint256 amount) onlyTraders(msg.sender) onlyOperations(operation) onlyCommodities(commodity) public {\n        Order memory newOrder = Order({\n            operation: operation,\n            commodity: commodity,\n            amount: amount,\n            seller: address(0x0),\n            buyer: address(0x0),\n            executed: false\n        });\n\n        if( operation == Operations.BUY ){\n            newOrder.buyer = msg.sender;\n        }else{\n            newOrder.seller = msg.sender;\n        }\n\n        orders.push(newOrder);\n\n        tradersOrders[msg.sender].itens.push(orders.length - 1);\n\n        emit NewOrderEvent(newOrder.operation, newOrder.commodity, newOrder.amount, msg.sender);\n    }\n\n    /*\n     * @dev consulta todos as ordens disponiveis para uma mercadoria\n     * @param commodity mercadoria das ordens procuradas\n     * @author bortes\n     */\n     function getAllOrdersByCommodity (Commodities commodity) onlyTraders(msg.sender) onlyCommodities(commodity) public view returns (uint256[] memory indexes) {\n         uint256 length = orders.length;\n         uint256 count = 0;\n\n         indexes = new uint256[](length);\n\n         for(uint256 index = 0; index < length; index++) {\n             if(orders[index].commodity == commodity){\n                indexes[count] = index;\n                 count++;\n             }\n         }\n\n         return indexes;\n     }\n\n    /*\n     * @dev consulta a ordem\n     * @param index indice da ordem\n     * @author bortes\n     */\n     function getOrderByIndex (uint256 index) onlyTraders(msg.sender) onlyOrders(index) view public returns (address, address, Commodities, Operations, uint256, bool) {\n        Order memory order = orders[index];\n\n        return (order.seller, order.buyer, order.commodity, order.operation, order.amount, order.executed);\n     }\n\n    /*\n     * @dev executa a ordem informada\n     * @param index indice da ordem de compra\n     * @author bortes\n     */\n     function executeOrder(uint256 index) onlyTraders(msg.sender) onlyOrders(index) payable public {\n        Order storage order = orders[index];\n        address payable sender;\n\n        require(!order.executed, \"order already executed\");\n\n        if( order.operation == Operations.BUY ){\n            order.executed = true;\n            order.seller = msg.sender;\n\n            sender = order.buyer;\n\n            emit NewSellEvent(index, order.seller, order.buyer, order.commodity, order.amount, msg.sender);\n        }else{\n            order.executed = true;\n            order.buyer = msg.sender;\n\n            sender = order.seller;\n\n            emit NewBuyEvent(index, order.seller, order.buyer, order.commodity, order.amount, msg.sender);\n        }\n\n        (bool success, ) = sender.call.value(msg.value)(\"\");\n        require(success, \"failed to transfer\");\n     }\n\n    //\n    // METODOS PRIVADOS\n    //\n\n    function init () private {\n        owner = msg.sender;\n    }\n}",
  "sourcePath": "/home/eu/projetos/_/fiap/fiap-blc-ethereum/contract/contracts/Marketplace.sol",
  "compiler": {
    "name": "solc",
    "version": "0.5.8+commit.23d335f2.Emscripten.clang"
  },
  "schemaVersion": "3.0.16",
  "updatedAt": "2020-06-07T18:40:16.983Z",
  "devdoc": {
    "methods": {
      "constructor": {
        "author": "bortes",
        "details": "inicializa uma nova versao do contrato"
      }
    }
  },
  "userdoc": {
    "methods": {}
  }
}