{
  "contractName": "Marketplace",
  "abi": [
    {
      "inputs": [],
      "payable": false,
      "stateMutability": "nonpayable",
      "type": "constructor"
    },
    {
      "anonymous": false,
      "inputs": [
        {
          "indexed": true,
          "name": "trader",
          "type": "address"
        },
        {
          "indexed": true,
          "name": "throwedBy",
          "type": "address"
        }
      ],
      "name": "NewTraderEvent",
      "type": "event"
    },
    {
      "anonymous": false,
      "inputs": [
        {
          "indexed": true,
          "name": "operation",
          "type": "uint8"
        },
        {
          "indexed": true,
          "name": "commodity",
          "type": "uint8"
        },
        {
          "indexed": false,
          "name": "amount",
          "type": "uint256"
        },
        {
          "indexed": true,
          "name": "throwedBy",
          "type": "address"
        }
      ],
      "name": "NewOrderEvent",
      "type": "event"
    },
    {
      "anonymous": false,
      "inputs": [
        {
          "indexed": false,
          "name": "index",
          "type": "uint256"
        },
        {
          "indexed": false,
          "name": "seller",
          "type": "address"
        },
        {
          "indexed": false,
          "name": "buyer",
          "type": "address"
        },
        {
          "indexed": true,
          "name": "commodity",
          "type": "uint8"
        },
        {
          "indexed": false,
          "name": "amount",
          "type": "uint256"
        },
        {
          "indexed": true,
          "name": "throwedBy",
          "type": "address"
        }
      ],
      "name": "NewSellEvent",
      "type": "event"
    },
    {
      "anonymous": false,
      "inputs": [
        {
          "indexed": false,
          "name": "index",
          "type": "uint256"
        },
        {
          "indexed": false,
          "name": "seller",
          "type": "address"
        },
        {
          "indexed": false,
          "name": "buyer",
          "type": "address"
        },
        {
          "indexed": true,
          "name": "commodity",
          "type": "uint8"
        },
        {
          "indexed": false,
          "name": "amount",
          "type": "uint256"
        },
        {
          "indexed": true,
          "name": "throwedBy",
          "type": "address"
        }
      ],
      "name": "NewBuyEvent",
      "type": "event"
    },
    {
      "constant": false,
      "inputs": [
        {
          "name": "trader",
          "type": "address"
        }
      ],
      "name": "addNewTrader",
      "outputs": [],
      "payable": false,
      "stateMutability": "nonpayable",
      "type": "function"
    },
    {
      "constant": false,
      "inputs": [
        {
          "name": "operation",
          "type": "uint8"
        },
        {
          "name": "commodity",
          "type": "uint8"
        },
        {
          "name": "amount",
          "type": "uint256"
        }
      ],
      "name": "addNewOrder",
      "outputs": [],
      "payable": false,
      "stateMutability": "nonpayable",
      "type": "function"
    },
    {
      "constant": true,
      "inputs": [
        {
          "name": "commodity",
          "type": "uint8"
        }
      ],
      "name": "getAllOrdersByCommodity",
      "outputs": [
        {
          "name": "indexes",
          "type": "uint256[]"
        }
      ],
      "payable": false,
      "stateMutability": "view",
      "type": "function"
    },
    {
      "constant": true,
      "inputs": [
        {
          "name": "index",
          "type": "uint256"
        }
      ],
      "name": "getOrderByIndex",
      "outputs": [
        {
          "name": "",
          "type": "address"
        },
        {
          "name": "",
          "type": "address"
        },
        {
          "name": "",
          "type": "uint8"
        },
        {
          "name": "",
          "type": "uint8"
        },
        {
          "name": "",
          "type": "uint256"
        }
      ],
      "payable": false,
      "stateMutability": "view",
      "type": "function"
    },
    {
      "constant": false,
      "inputs": [
        {
          "name": "index",
          "type": "uint256"
        }
      ],
      "name": "addNewSeller",
      "outputs": [],
      "payable": true,
      "stateMutability": "payable",
      "type": "function"
    },
    {
      "constant": false,
      "inputs": [
        {
          "name": "index",
          "type": "uint256"
        }
      ],
      "name": "addNewBuyer",
      "outputs": [],
      "payable": true,
      "stateMutability": "payable",
      "type": "function"
    }
  ],
  "bytecode": "0x608060405234801561001057600080fd5b5061001f61002460201b60201c565b610066565b336000806101000a81548173ffffffffffffffffffffffffffffffffffffffff021916908373ffffffffffffffffffffffffffffffffffffffff160217905550565b611f48806100756000396000f3fe6080604052600436106100555760003560e01c80632f73838b1461005a57806351e822a5146100ed5780638d20ebc014610142578063dabe8a7114610170578063e13b9bd31461024f578063eaee70471461027d575b600080fd5b34801561006657600080fd5b506100966004803603602081101561007d57600080fd5b81019080803560ff1690602001909291905050506102ce565b6040518080602001828103825283818151815260200191508051906020019060200280838360005b838110156100d95780820151818401526020810190506100be565b505050509050019250505060405180910390f35b3480156100f957600080fd5b506101406004803603606081101561011057600080fd5b81019080803560ff169060200190929190803560ff16906020019092919080359060200190929190505050610509565b005b61016e6004803603602081101561015857600080fd5b8101908080359060200190929190505050610981565b005b34801561017c57600080fd5b506101a96004803603602081101561019357600080fd5b810190808035906020019092919050505061100f565b604051808673ffffffffffffffffffffffffffffffffffffffff1673ffffffffffffffffffffffffffffffffffffffff1681526020018573ffffffffffffffffffffffffffffffffffffffff1673ffffffffffffffffffffffffffffffffffffffff16815260200184600281111561021d57fe5b60ff16815260200183600181111561023157fe5b60ff1681526020018281526020019550505050505060405180910390f35b61027b6004803603602081101561026557600080fd5b8101908080359060200190929190505050611591565b005b34801561028957600080fd5b506102cc600480360360208110156102a057600080fd5b81019080803573ffffffffffffffffffffffffffffffffffffffff169060200190929190505050611c20565b005b606033600073ffffffffffffffffffffffffffffffffffffffff168173ffffffffffffffffffffffffffffffffffffffff161415610374576040517f08c379a00000000000000000000000000000000000000000000000000000000081526004018080602001828103825260168152602001807f696e76616c69642074726164657220616464726573730000000000000000000081525060200191505060405180910390fd5b600160008273ffffffffffffffffffffffffffffffffffffffff1673ffffffffffffffffffffffffffffffffffffffff16815260200190815260200160002060000160009054906101000a900460ff16610436576040517f08c379a000000000000000000000000000000000000000000000000000000000815260040180806020018281038252601f8152602001807f61646472657373206e6f7420726567697374726564206173207472616465720081525060200191505060405180910390fd5b600060038054905090506000809050816040519080825280602002602001820160405280156104745781602001602082028038833980820191505090505b50935060008090505b828110156104fd5785600281111561049157fe5b6003828154811061049e57fe5b906000526020600020906003020160010160149054906101000a900460ff1660028111156104c857fe5b14156104f057808583815181106104db57fe5b60200260200101818152505081806001019250505b808060010191505061047d565b50839350505050919050565b33600073ffffffffffffffffffffffffffffffffffffffff168173ffffffffffffffffffffffffffffffffffffffff1614156105ad576040517f08c379a00000000000000000000000000000000000000000000000000000000081526004018080602001828103825260168152602001807f696e76616c69642074726164657220616464726573730000000000000000000081525060200191505060405180910390fd5b600160008273ffffffffffffffffffffffffffffffffffffffff1673ffffffffffffffffffffffffffffffffffffffff16815260200190815260200160002060000160009054906101000a900460ff1661066f576040517f08c379a000000000000000000000000000000000000000000000000000000000815260040180806020018281038252601f8152602001807f61646472657373206e6f7420726567697374726564206173207472616465720081525060200191505060405180910390fd5b610677611e88565b6040518060a00160405280600073ffffffffffffffffffffffffffffffffffffffff168152602001600073ffffffffffffffffffffffffffffffffffffffff1681526020018560028111156106c857fe5b81526020018660018111156106d957fe5b8152602001848152509050600060018111156106f157fe5b8560018111156106fd57fe5b14156107405733816020019073ffffffffffffffffffffffffffffffffffffffff16908173ffffffffffffffffffffffffffffffffffffffff1681525050610779565b33816000019073ffffffffffffffffffffffffffffffffffffffff16908173ffffffffffffffffffffffffffffffffffffffff16815250505b6003819080600181540180825580915050906001820390600052602060002090600302016000909192909190915060008201518160000160006101000a81548173ffffffffffffffffffffffffffffffffffffffff021916908373ffffffffffffffffffffffffffffffffffffffff16021790555060208201518160010160006101000a81548173ffffffffffffffffffffffffffffffffffffffff021916908373ffffffffffffffffffffffffffffffffffffffff16021790555060408201518160010160146101000a81548160ff0219169083600281111561085957fe5b021790555060608201518160010160156101000a81548160ff0219169083600181111561088257fe5b021790555060808201518160020155505050600160003373ffffffffffffffffffffffffffffffffffffffff1673ffffffffffffffffffffffffffffffffffffffff16815260200190815260200160002060010160016003805490500390806001815401808255809150509060018203906000526020600020016000909192909190915055503373ffffffffffffffffffffffffffffffffffffffff168160400151600281111561092f57fe5b8260600151600181111561093f57fe5b7f4032455b3cb008b602744fcc0e9879b76e3be3c6c7538aeed4508a098c1db9e884608001516040518082815260200191505060405180910390a45050505050565b33600073ffffffffffffffffffffffffffffffffffffffff168173ffffffffffffffffffffffffffffffffffffffff161415610a25576040517f08c379a00000000000000000000000000000000000000000000000000000000081526004018080602001828103825260168152602001807f696e76616c69642074726164657220616464726573730000000000000000000081525060200191505060405180910390fd5b600160008273ffffffffffffffffffffffffffffffffffffffff1673ffffffffffffffffffffffffffffffffffffffff16815260200190815260200160002060000160009054906101000a900460ff16610ae7576040517f08c379a000000000000000000000000000000000000000000000000000000000815260040180806020018281038252601f8152602001807f61646472657373206e6f7420726567697374726564206173207472616465720081525060200191505060405180910390fd5b818060038054905011610b62576040517f08c379a000000000000000000000000000000000000000000000000000000000815260040180806020018281038252600d8152602001807f696e76616c696420696e6465780000000000000000000000000000000000000081525060200191505060405180910390fd5b610b6a611e88565b60038281548110610b7757fe5b90600052602060002090600302016040518060a00160405290816000820160009054906101000a900473ffffffffffffffffffffffffffffffffffffffff1673ffffffffffffffffffffffffffffffffffffffff1673ffffffffffffffffffffffffffffffffffffffff1681526020016001820160009054906101000a900473ffffffffffffffffffffffffffffffffffffffff1673ffffffffffffffffffffffffffffffffffffffff1673ffffffffffffffffffffffffffffffffffffffff1681526020016001820160149054906101000a900460ff166002811115610c5a57fe5b6002811115610c6557fe5b81526020016001820160159054906101000a900460ff166001811115610c8757fe5b6001811115610c9257fe5b81526020016002820154815250509050600073ffffffffffffffffffffffffffffffffffffffff16816000015173ffffffffffffffffffffffffffffffffffffffff16141580610d135750600073ffffffffffffffffffffffffffffffffffffffff16816020015173ffffffffffffffffffffffffffffffffffffffff1614155b610d85576040517f08c379a000000000000000000000000000000000000000000000000000000000815260040180806020018281038252600f8152602001807f6f72646572206e6f7420666f756e64000000000000000000000000000000000081525060200191505060405180910390fd5b600180811115610d9157fe5b81606001516001811115610da157fe5b14610e14576040517f08c379a00000000000000000000000000000000000000000000000000000000081526004018080602001828103825260148152602001807f73656c6c206f72646572206e6f7420666f756e6400000000000000000000000081525060200191505060405180910390fd5b600060038581548110610e2357fe5b90600052602060002090600302019050338160010160006101000a81548173ffffffffffffffffffffffffffffffffffffffff021916908373ffffffffffffffffffffffffffffffffffffffff1602179055508060000160009054906101000a900473ffffffffffffffffffffffffffffffffffffffff1673ffffffffffffffffffffffffffffffffffffffff166108fc349081150290604051600060405180830381858888f19350505050158015610ee0573d6000803e3d6000fd5b503373ffffffffffffffffffffffffffffffffffffffff168160010160149054906101000a900460ff166002811115610f1557fe5b7fbe38edf4486b5d0eeea5720d236b300ffc3f2accf9a83da983aa3da21557c426878460000160009054906101000a900473ffffffffffffffffffffffffffffffffffffffff168560010160009054906101000a900473ffffffffffffffffffffffffffffffffffffffff168660020154604051808581526020018473ffffffffffffffffffffffffffffffffffffffff1673ffffffffffffffffffffffffffffffffffffffff1681526020018373ffffffffffffffffffffffffffffffffffffffff1673ffffffffffffffffffffffffffffffffffffffff16815260200182815260200194505050505060405180910390a35050505050565b600080600080600033600073ffffffffffffffffffffffffffffffffffffffff168173ffffffffffffffffffffffffffffffffffffffff1614156110bb576040517f08c379a00000000000000000000000000000000000000000000000000000000081526004018080602001828103825260168152602001807f696e76616c69642074726164657220616464726573730000000000000000000081525060200191505060405180910390fd5b600160008273ffffffffffffffffffffffffffffffffffffffff1673ffffffffffffffffffffffffffffffffffffffff16815260200190815260200160002060000160009054906101000a900460ff1661117d576040517f08c379a000000000000000000000000000000000000000000000000000000000815260040180806020018281038252601f8152602001807f61646472657373206e6f7420726567697374726564206173207472616465720081525060200191505060405180910390fd5b8680600380549050116111f8576040517f08c379a000000000000000000000000000000000000000000000000000000000815260040180806020018281038252600d8152602001807f696e76616c696420696e6465780000000000000000000000000000000000000081525060200191505060405180910390fd5b611200611e88565b6003828154811061120d57fe5b90600052602060002090600302016040518060a00160405290816000820160009054906101000a900473ffffffffffffffffffffffffffffffffffffffff1673ffffffffffffffffffffffffffffffffffffffff1673ffffffffffffffffffffffffffffffffffffffff1681526020016001820160009054906101000a900473ffffffffffffffffffffffffffffffffffffffff1673ffffffffffffffffffffffffffffffffffffffff1673ffffffffffffffffffffffffffffffffffffffff1681526020016001820160149054906101000a900460ff1660028111156112f057fe5b60028111156112fb57fe5b81526020016001820160159054906101000a900460ff16600181111561131d57fe5b600181111561132857fe5b81526020016002820154815250509050600073ffffffffffffffffffffffffffffffffffffffff16816000015173ffffffffffffffffffffffffffffffffffffffff161415806113a95750600073ffffffffffffffffffffffffffffffffffffffff16816020015173ffffffffffffffffffffffffffffffffffffffff1614155b61141b576040517f08c379a000000000000000000000000000000000000000000000000000000000815260040180806020018281038252600f8152602001807f6f72646572206e6f7420666f756e64000000000000000000000000000000000081525060200191505060405180910390fd5b611423611e88565b60038a8154811061143057fe5b90600052602060002090600302016040518060a00160405290816000820160009054906101000a900473ffffffffffffffffffffffffffffffffffffffff1673ffffffffffffffffffffffffffffffffffffffff1673ffffffffffffffffffffffffffffffffffffffff1681526020016001820160009054906101000a900473ffffffffffffffffffffffffffffffffffffffff1673ffffffffffffffffffffffffffffffffffffffff1673ffffffffffffffffffffffffffffffffffffffff1681526020016001820160149054906101000a900460ff16600281111561151357fe5b600281111561151e57fe5b81526020016001820160159054906101000a900460ff16600181111561154057fe5b600181111561154b57fe5b8152602001600282015481525050905080600001518160200151826040015183606001518460800151849450839350985098509850985098505050505091939590929450565b33600073ffffffffffffffffffffffffffffffffffffffff168173ffffffffffffffffffffffffffffffffffffffff161415611635576040517f08c379a00000000000000000000000000000000000000000000000000000000081526004018080602001828103825260168152602001807f696e76616c69642074726164657220616464726573730000000000000000000081525060200191505060405180910390fd5b600160008273ffffffffffffffffffffffffffffffffffffffff1673ffffffffffffffffffffffffffffffffffffffff16815260200190815260200160002060000160009054906101000a900460ff166116f7576040517f08c379a000000000000000000000000000000000000000000000000000000000815260040180806020018281038252601f8152602001807f61646472657373206e6f7420726567697374726564206173207472616465720081525060200191505060405180910390fd5b818060038054905011611772576040517f08c379a000000000000000000000000000000000000000000000000000000000815260040180806020018281038252600d8152602001807f696e76616c696420696e6465780000000000000000000000000000000000000081525060200191505060405180910390fd5b61177a611e88565b6003828154811061178757fe5b90600052602060002090600302016040518060a00160405290816000820160009054906101000a900473ffffffffffffffffffffffffffffffffffffffff1673ffffffffffffffffffffffffffffffffffffffff1673ffffffffffffffffffffffffffffffffffffffff1681526020016001820160009054906101000a900473ffffffffffffffffffffffffffffffffffffffff1673ffffffffffffffffffffffffffffffffffffffff1673ffffffffffffffffffffffffffffffffffffffff1681526020016001820160149054906101000a900460ff16600281111561186a57fe5b600281111561187557fe5b81526020016001820160159054906101000a900460ff16600181111561189757fe5b60018111156118a257fe5b81526020016002820154815250509050600073ffffffffffffffffffffffffffffffffffffffff16816000015173ffffffffffffffffffffffffffffffffffffffff161415806119235750600073ffffffffffffffffffffffffffffffffffffffff16816020015173ffffffffffffffffffffffffffffffffffffffff1614155b611995576040517f08c379a000000000000000000000000000000000000000000000000000000000815260040180806020018281038252600f8152602001807f6f72646572206e6f7420666f756e64000000000000000000000000000000000081525060200191505060405180910390fd5b600060018111156119a257fe5b816060015160018111156119b257fe5b14611a25576040517f08c379a00000000000000000000000000000000000000000000000000000000081526004018080602001828103825260138152602001807f627579206f72646572206e6f7420666f756e640000000000000000000000000081525060200191505060405180910390fd5b600060038581548110611a3457fe5b90600052602060002090600302019050338160000160006101000a81548173ffffffffffffffffffffffffffffffffffffffff021916908373ffffffffffffffffffffffffffffffffffffffff1602179055508060010160009054906101000a900473ffffffffffffffffffffffffffffffffffffffff1673ffffffffffffffffffffffffffffffffffffffff166108fc349081150290604051600060405180830381858888f19350505050158015611af1573d6000803e3d6000fd5b503373ffffffffffffffffffffffffffffffffffffffff168160010160149054906101000a900460ff166002811115611b2657fe5b7ff989e9a12ae91995e47ee7a3340c2f4a37a211185c9bc32f59de66a1c732f70f878460000160009054906101000a900473ffffffffffffffffffffffffffffffffffffffff168560010160009054906101000a900473ffffffffffffffffffffffffffffffffffffffff168660020154604051808581526020018473ffffffffffffffffffffffffffffffffffffffff1673ffffffffffffffffffffffffffffffffffffffff1681526020018373ffffffffffffffffffffffffffffffffffffffff1673ffffffffffffffffffffffffffffffffffffffff16815260200182815260200194505050505060405180910390a35050505050565b80600073ffffffffffffffffffffffffffffffffffffffff168173ffffffffffffffffffffffffffffffffffffffff161415611cc4576040517f08c379a00000000000000000000000000000000000000000000000000000000081526004018080602001828103825260168152602001807f696e76616c69642074726164657220616464726573730000000000000000000081525060200191505060405180910390fd5b600160008273ffffffffffffffffffffffffffffffffffffffff1673ffffffffffffffffffffffffffffffffffffffff16815260200190815260200160002060000160009054906101000a900460ff1615611d6a576040517f08c379a0000000000000000000000000000000000000000000000000000000008152600401808060200182810382526023815260200180611efa6023913960400191505060405180910390fd5b60028290806001815401808255809150509060018203906000526020600020016000909192909190916101000a81548173ffffffffffffffffffffffffffffffffffffffff021916908373ffffffffffffffffffffffffffffffffffffffff1602179055505060018060008473ffffffffffffffffffffffffffffffffffffffff1673ffffffffffffffffffffffffffffffffffffffff16815260200190815260200160002060000160006101000a81548160ff0219169083151502179055503373ffffffffffffffffffffffffffffffffffffffff168273ffffffffffffffffffffffffffffffffffffffff167f566618f1f5b6d145da4eca87b73fe6e7d464cdc7adcc70838d140a919ec4ebec60405160405180910390a35050565b6040518060a00160405280600073ffffffffffffffffffffffffffffffffffffffff168152602001600073ffffffffffffffffffffffffffffffffffffffff16815260200160006002811115611eda57fe5b815260200160006001811115611eec57fe5b815260200160008152509056fe6164647265737320616c72656164792072656769737472656420617320747261646572a165627a7a72305820648f6c6ea9c0589172ef89a0a0dcecb267e608545032e7098c2e520c6443cd2f0029",
  "source": "pragma solidity ^0.5.8;\n\ncontract Marketplace {\n    //\n    // ENUMERADORES / ESTRUTURAS\n    //\n    enum Operations {\n        BUY,  // compra de commodity\n        SELL // venda de commodity\n    }\n\n    enum Commodities {\n        SUGAR, // futuro de acucar cristal com liquidacao financeira\n        CORN, // futuro de milho com liquidacao financeira\n        SOY // futuro de soja com liquidacao financeira\n    }\n\n    struct Order {\n        address payable seller;\n        address payable buyer;\n        Commodities commodity;\n        Operations operation;\n        uint256 amount;\n    }\n\n    struct OrderList {\n        bool initialized;\n        uint256[] itens;\n    }\n\n    //\n    // EVENTOS\n    //\n\n\n    /**\n     * @dev evento disparado quando um novo negociante for registrado\n     * @param trader endereco do comerciante\n     * @param throwedBy address que disparou o evento\n     * @author bortes\n     */\n    event NewTraderEvent(address indexed trader, address indexed throwedBy);\n\n\n    /**\n     * @dev evento disparado quando uma nova ordem for registrada\n     * @param operation operacao desejada\n     * @param commodity mercadoria desejada\n     * @param amount quantidade desejada\n     * @param throwedBy address que disparou o evento\n     * @author bortes\n     */\n    event NewOrderEvent(Operations indexed operation, Commodities indexed commodity, uint256 amount, address indexed throwedBy);\n\n\n    /**\n     * @dev evento disparado quando ocorrer uma venda\n     * @param index indice da ordem\n     * @param seller endereco do vendedor\n     * @param buyer endereco do comprador\n     * @param commodity mercadoria negociada\n     * @param amount quantidade negociada\n     * @param throwedBy address que disparou o evento\n     * @author bortes\n     */\n    event NewSellEvent(uint256 index, address seller, address buyer, Commodities indexed commodity, uint256 amount, address indexed throwedBy);\n\n\n    /**\n     * @dev evento disparado quando ocorrer uma compra\n     * @param index indice da ordem\n     * @param seller endereco do vendedor\n     * @param buyer endereco do comprador\n     * @param commodity mercadoria negociada\n     * @param amount quantidade negociada\n     * @param throwedBy address que disparou o evento\n     * @author bortes\n     */\n    event NewBuyEvent(uint256 index, address seller, address buyer, Commodities indexed commodity, uint256 amount, address indexed throwedBy);\n\n    //\n    // MODIFICADORES\n    //\n\n    /**\n     * @dev consiste endereco nao cadastrado\n     * @param trader endereco do comerciante\n     * @author bortes\n     */\n    modifier exceptTrader(\n        address trader\n    ) {\n        // consistencias\n        require(trader != address(0x0), \"invalid trader address\");\n        require(!tradersOrders[trader].initialized, \"address already registred as trader\");\n\n        // prossegue com a analise dos modificadores\n        _;\n    }\n\n    /**\n     * @dev coonsiste endereco ja cadastrado\n     * @param trader endereco do comerciante\n     * @author bortes\n     */\n    modifier onlyTraders(\n        address trader\n    ) {\n        // consistencias\n        require(trader != address(0x0), \"invalid trader address\");\n        require(tradersOrders[trader].initialized, \"address not registred as trader\");\n\n        // prossegue com a analise dos modificadores\n        _;\n    }\n\n    /**\n     * @dev coonsiste ordem\n     * @param index indice da ordem de compra\n     * @author bortes\n     */\n    modifier onlyOrders(\n        uint256 index\n    ) {\n        // consistencias\n        require(orders.length > index, \"invalid index\");\n\n        Order memory order = orders[index];\n        require(order.seller != address(0x0) || order.buyer != address(0x0), \"order not found\");\n\n        // prossegue com a analise dos modificadores\n        _;\n    }\n\n    /**\n     * @dev coonsiste ordem de compra\n     * @param index indice da ordem de compra\n     * @author bortes\n     */\n    modifier onlyBuyOrders(\n        uint256 index\n    ) {\n        // consistencias\n        require(orders.length > index, \"invalid index\");\n\n        Order memory order = orders[index];\n        require(order.seller != address(0x0) || order.buyer != address(0x0), \"order not found\");\n        require(order.operation == Operations.BUY, \"buy order not found\");\n\n        // prossegue com a analise dos modificadores\n        _;\n    }\n\n    /**\n     * @dev coonsiste ordem de venda\n     * @param index indice da ordem de venda\n     * @author bortes\n     */\n    modifier onlySellOrders(\n        uint256 index\n    ) {\n        // consistencias\n        require(orders.length > index, \"invalid index\");\n\n        Order memory order = orders[index];\n        require(order.seller != address(0x0) || order.buyer != address(0x0), \"order not found\");\n        require(order.operation == Operations.SELL, \"sell order not found\");\n\n        // prossegue com a analise dos modificadores\n        _;\n    }\n\n    //\n    // ATRIBUTOS\n    //\n    address private owner;\n\n    mapping(address => OrderList) private tradersOrders;\n\n    address[] private traders;\n\n    Order[] private orders;\n\n    //\n    // CONSTRUTOR\n    //\n\n    /**\n     * @dev inicializa uma nova versao do contrato\n     * @author bortes\n     */\n    constructor () public {\n        init();\n    }\n\n    //\n    // METODOS PUBLICOS\n    //\n\n    /*\n     * @dev adiciona um novo negociante\n     * @param trader endereco do comerciante\n     * @author bortes\n     */\n    function addNewTrader(address trader) exceptTrader(trader) public {\n        traders.push(trader);\n        tradersOrders[trader].initialized = true;\n\n        emit NewTraderEvent(trader, msg.sender);\n    }\n\n    /*\n     * @dev adiciona uma nova ordem para uma mercadoria disponivel\n     * @param operation operacao desejada\n     * @param commodity mercadoria desejada\n     * @param amount quantidade desejada\n     * @author bortes\n     */\n    function addNewOrder (Operations operation, Commodities commodity, uint256 amount) onlyTraders(msg.sender) public {\n        Order memory newOrder = Order({\n            operation: operation,\n            commodity: commodity,\n            amount: amount,\n            seller: address(0x0),\n            buyer: address(0x0)\n        });\n\n        if( operation == Operations.BUY ){\n            newOrder.buyer = msg.sender;\n        }else{\n            newOrder.seller = msg.sender;\n        }\n\n        orders.push(newOrder);\n\n        tradersOrders[msg.sender].itens.push(orders.length - 1);\n\n        emit NewOrderEvent(newOrder.operation, newOrder.commodity, newOrder.amount, msg.sender);\n    }\n\n    /*\n     * @dev consulta todos as ordens disponiveis para uma mercadoria\n     * @param commodity mercadoria das ordens procuradas\n     * @author bortes\n     */\n     function getAllOrdersByCommodity (Commodities commodity) onlyTraders(msg.sender) public view returns (uint256[] memory indexes) {\n         uint256 length = orders.length;\n         uint256 count = 0;\n\n         indexes = new uint256[](length);\n\n         for(uint256 index = 0; index < length; index++) {\n             if(orders[index].commodity == commodity){\n                indexes[count] = index;\n                 count++;\n             }\n         }\n\n         return indexes;\n     }\n\n    /*\n     * @dev consulta a ordem\n     * @param index indice da ordem\n     * @author bortes\n     */\n     function getOrderByIndex (uint256 index) onlyTraders(msg.sender) onlyOrders(index) view public returns (address, address, Commodities, Operations, uint256) {\n        Order memory order = orders[index];\n\n        return (order.seller, order.buyer, order.commodity, order.operation, order.amount);\n     }\n    /*\n     * @dev adiciona um novo vendedor para a orderm informada\n     * @param index indice da ordem de compra\n     * @author bortes\n     */\n     function addNewSeller(uint256 index) onlyTraders(msg.sender) onlyBuyOrders(index) payable public {\n        Order storage order = orders[index];\n\n        order.seller = msg.sender;\n        order.buyer.transfer(msg.value);\n\n        emit NewSellEvent(index, order.seller, order.buyer, order.commodity, order.amount, msg.sender);\n     }\n\n    /*\n     * @dev adiciona um novo comprador para a orderm informada\n     * @param index indice da ordem de compra\n     * @author bortes\n     */\n     function addNewBuyer(uint256 index) onlyTraders(msg.sender) onlySellOrders(index) payable public {\n        Order storage order = orders[index];\n\n        order.buyer = msg.sender;\n        order.seller.transfer(msg.value);\n\n        emit NewBuyEvent(index, order.seller, order.buyer, order.commodity, order.amount, msg.sender);\n     }\n\n    //\n    // METODOS PRIVADOS\n    //\n\n    function init () private {\n        owner = msg.sender;\n    }\n}",
  "sourcePath": "/home/eu/projetos/_/fiap/fiap-blc-ethereum/contract/contracts/Marketplace.sol",
  "compiler": {
    "name": "solc",
    "version": "0.5.8+commit.23d335f2.Emscripten.clang"
  },
  "schemaVersion": "3.0.16",
  "updatedAt": "2020-03-26T05:46:40.921Z",
  "devdoc": {
    "methods": {
      "constructor": {
        "author": "bortes",
        "details": "inicializa uma nova versao do contrato"
      }
    }
  },
  "userdoc": {
    "methods": {}
  }
}